:100000000C942A000C943C000C943C000C943C0092
:100010000C943C000C943C000C943C000C943C0070
:100020000C943C000C944F000C943C000C943C004D
:100030000C943C000C943C000C943C000C943C0050
:100040000C943C000C943C000C943C000C943C0040
:100050000C943C0011241FBECFE5D4E0DEBFCDBF21
:1000600020E0A0E6B0E001C01D92A136B207E1F7A2
:100070000E943E000C946D000C94000081B38064DB
:1000800081BB12BE1092600083B78D7F83BF83B7A0
:10009000856083BF89B7816089BF7894FFCF1F9245
:1000A0000F920FB60F9211248F939F93809160004F
:1000B0008F3139F492B380E4892782BB10926000BB
:1000C00005C0809160008F5F809360009F918F9149
:0E00D0000F900FBE0F901F901895F894FFCF61
:00000001FF
